{
  "_format": "hh-sol-artifact-1",
  "contractName": "Superstream",
  "sourceName": "contracts/Superstream.sol",
  "abi": [
    {
      "inputs": [],
      "stateMutability": "nonpayable",
      "type": "constructor"
    },
    {
      "anonymous": false,
      "inputs": [
        {
          "components": [
            {
              "internalType": "uint256",
              "name": "createdAt",
              "type": "uint256"
            },
            {
              "internalType": "string",
              "name": "topic",
              "type": "string"
            },
            {
              "internalType": "string",
              "name": "message",
              "type": "string"
            },
            {
              "internalType": "string",
              "name": "senderUsername",
              "type": "string"
            },
            {
              "internalType": "address",
              "name": "senderAddress",
              "type": "address"
            }
          ],
          "indexed": false,
          "internalType": "struct Superstream.Comment",
          "name": "comment",
          "type": "tuple"
        },
        {
          "indexed": true,
          "internalType": "string",
          "name": "topic",
          "type": "string"
        },
        {
          "indexed": false,
          "internalType": "uint256",
          "name": "createdAt",
          "type": "uint256"
        }
      ],
      "name": "CommentAdded",
      "type": "event"
    },
    {
      "anonymous": false,
      "inputs": [
        {
          "indexed": true,
          "internalType": "string",
          "name": "_from",
          "type": "string"
        },
        {
          "indexed": true,
          "internalType": "string",
          "name": "_to",
          "type": "string"
        }
      ],
      "name": "Followed",
      "type": "event"
    },
    {
      "anonymous": false,
      "inputs": [
        {
          "indexed": true,
          "internalType": "address",
          "name": "creator",
          "type": "address"
        },
        {
          "indexed": false,
          "internalType": "string",
          "name": "newTitle",
          "type": "string"
        }
      ],
      "name": "LivestreamInfoUpdated",
      "type": "event"
    },
    {
      "anonymous": false,
      "inputs": [
        {
          "components": [
            {
              "internalType": "uint256",
              "name": "id",
              "type": "uint256"
            },
            {
              "internalType": "uint256",
              "name": "subscriptionCharge",
              "type": "uint256"
            },
            {
              "internalType": "uint256",
              "name": "subscribersCount",
              "type": "uint256"
            },
            {
              "internalType": "bool",
              "name": "isOnlySubscribers",
              "type": "bool"
            },
            {
              "internalType": "string",
              "name": "username",
              "type": "string"
            },
            {
              "internalType": "string",
              "name": "bio",
              "type": "string"
            },
            {
              "internalType": "string",
              "name": "pfp",
              "type": "string"
            },
            {
              "internalType": "string",
              "name": "streamId",
              "type": "string"
            },
            {
              "internalType": "string",
              "name": "defaultTitle",
              "type": "string"
            },
            {
              "internalType": "string",
              "name": "defaultThumbnail",
              "type": "string"
            },
            {
              "internalType": "string[]",
              "name": "followers",
              "type": "string[]"
            },
            {
              "internalType": "string[]",
              "name": "follows",
              "type": "string[]"
            },
            {
              "internalType": "address",
              "name": "owner",
              "type": "address"
            }
          ],
          "indexed": false,
          "internalType": "struct Superstream.Profile",
          "name": "_profile",
          "type": "tuple"
        }
      ],
      "name": "ProfileCreated",
      "type": "event"
    },
    {
      "anonymous": false,
      "inputs": [
        {
          "indexed": false,
          "internalType": "uint256",
          "name": "streamNftId",
          "type": "uint256"
        },
        {
          "indexed": true,
          "internalType": "address",
          "name": "creator",
          "type": "address"
        }
      ],
      "name": "StreamPublished",
      "type": "event"
    },
    {
      "anonymous": false,
      "inputs": [
        {
          "indexed": true,
          "internalType": "address",
          "name": "from",
          "type": "address"
        },
        {
          "indexed": true,
          "internalType": "address",
          "name": "toAddress",
          "type": "address"
        },
        {
          "indexed": false,
          "internalType": "string",
          "name": "toUsername",
          "type": "string"
        },
        {
          "indexed": false,
          "internalType": "uint256",
          "name": "flowRate",
          "type": "uint256"
        }
      ],
      "name": "Subscribed",
      "type": "event"
    },
    {
      "anonymous": false,
      "inputs": [
        {
          "indexed": true,
          "internalType": "address",
          "name": "creator",
          "type": "address"
        },
        {
          "indexed": false,
          "internalType": "uint256",
          "name": "newFlowRate",
          "type": "uint256"
        }
      ],
      "name": "SubscriptionChargeUpdated",
      "type": "event"
    },
    {
      "anonymous": false,
      "inputs": [
        {
          "indexed": true,
          "internalType": "address",
          "name": "sender",
          "type": "address"
        },
        {
          "indexed": true,
          "internalType": "address",
          "name": "receiver",
          "type": "address"
        },
        {
          "indexed": false,
          "internalType": "uint256",
          "name": "amount",
          "type": "uint256"
        }
      ],
      "name": "Tipped",
      "type": "event"
    },
    {
      "anonymous": false,
      "inputs": [
        {
          "indexed": true,
          "internalType": "address",
          "name": "subscriber",
          "type": "address"
        },
        {
          "indexed": true,
          "internalType": "string",
          "name": "creator",
          "type": "string"
        }
      ],
      "name": "Unsubscribed",
      "type": "event"
    },
    {
      "anonymous": false,
      "inputs": [
        {
          "indexed": true,
          "internalType": "uint256",
          "name": "id",
          "type": "uint256"
        },
        {
          "indexed": false,
          "internalType": "address",
          "name": "viewer",
          "type": "address"
        }
      ],
      "name": "VideoViewed",
      "type": "event"
    },
    {
      "inputs": [
        {
          "internalType": "string",
          "name": "_topic",
          "type": "string"
        },
        {
          "internalType": "string",
          "name": "_message",
          "type": "string"
        }
      ],
      "name": "addComment",
      "outputs": [],
      "stateMutability": "nonpayable",
      "type": "function"
    },
    {
      "inputs": [
        {
          "internalType": "string",
          "name": "_username",
          "type": "string"
        },
        {
          "internalType": "string",
          "name": "_bio",
          "type": "string"
        },
        {
          "internalType": "string",
          "name": "_pfp",
          "type": "string"
        },
        {
          "internalType": "string",
          "name": "_streamId",
          "type": "string"
        },
        {
          "internalType": "string",
          "name": "_streamKey",
          "type": "string"
        }
      ],
      "name": "addProfile",
      "outputs": [],
      "stateMutability": "nonpayable",
      "type": "function"
    },
    {
      "inputs": [
        {
          "internalType": "uint256",
          "name": "_streamNftId",
          "type": "uint256"
        },
        {
          "internalType": "string",
          "name": "_sessionId",
          "type": "string"
        },
        {
          "internalType": "bool",
          "name": "_isSubscribersOnly",
          "type": "bool"
        }
      ],
      "name": "addStream",
      "outputs": [],
      "stateMutability": "nonpayable",
      "type": "function"
    },
    {
      "inputs": [
        {
          "internalType": "string",
          "name": "_to",
          "type": "string"
        }
      ],
      "name": "follow",
      "outputs": [],
      "stateMutability": "nonpayable",
      "type": "function"
    },
    {
      "inputs": [
        {
          "internalType": "string",
          "name": "_topic",
          "type": "string"
        }
      ],
      "name": "getComments",
      "outputs": [
        {
          "components": [
            {
              "internalType": "uint256",
              "name": "createdAt",
              "type": "uint256"
            },
            {
              "internalType": "string",
              "name": "topic",
              "type": "string"
            },
            {
              "internalType": "string",
              "name": "message",
              "type": "string"
            },
            {
              "internalType": "string",
              "name": "senderUsername",
              "type": "string"
            },
            {
              "internalType": "address",
              "name": "senderAddress",
              "type": "address"
            }
          ],
          "internalType": "struct Superstream.Comment[]",
          "name": "",
          "type": "tuple[]"
        }
      ],
      "stateMutability": "view",
      "type": "function"
    },
    {
      "inputs": [],
      "name": "getProfileByAddress",
      "outputs": [
        {
          "components": [
            {
              "internalType": "uint256",
              "name": "id",
              "type": "uint256"
            },
            {
              "internalType": "uint256",
              "name": "subscriptionCharge",
              "type": "uint256"
            },
            {
              "internalType": "uint256",
              "name": "subscribersCount",
              "type": "uint256"
            },
            {
              "internalType": "bool",
              "name": "isOnlySubscribers",
              "type": "bool"
            },
            {
              "internalType": "string",
              "name": "username",
              "type": "string"
            },
            {
              "internalType": "string",
              "name": "bio",
              "type": "string"
            },
            {
              "internalType": "string",
              "name": "pfp",
              "type": "string"
            },
            {
              "internalType": "string",
              "name": "streamId",
              "type": "string"
            },
            {
              "internalType": "string",
              "name": "defaultTitle",
              "type": "string"
            },
            {
              "internalType": "string",
              "name": "defaultThumbnail",
              "type": "string"
            },
            {
              "internalType": "string[]",
              "name": "followers",
              "type": "string[]"
            },
            {
              "internalType": "string[]",
              "name": "follows",
              "type": "string[]"
            },
            {
              "internalType": "address",
              "name": "owner",
              "type": "address"
            }
          ],
          "internalType": "struct Superstream.Profile",
          "name": "",
          "type": "tuple"
        }
      ],
      "stateMutability": "view",
      "type": "function"
    },
    {
      "inputs": [
        {
          "internalType": "string",
          "name": "_username",
          "type": "string"
        }
      ],
      "name": "getProfileByUsername",
      "outputs": [
        {
          "components": [
            {
              "internalType": "uint256",
              "name": "id",
              "type": "uint256"
            },
            {
              "internalType": "uint256",
              "name": "subscriptionCharge",
              "type": "uint256"
            },
            {
              "internalType": "uint256",
              "name": "subscribersCount",
              "type": "uint256"
            },
            {
              "internalType": "bool",
              "name": "isOnlySubscribers",
              "type": "bool"
            },
            {
              "internalType": "string",
              "name": "username",
              "type": "string"
            },
            {
              "internalType": "string",
              "name": "bio",
              "type": "string"
            },
            {
              "internalType": "string",
              "name": "pfp",
              "type": "string"
            },
            {
              "internalType": "string",
              "name": "streamId",
              "type": "string"
            },
            {
              "internalType": "string",
              "name": "defaultTitle",
              "type": "string"
            },
            {
              "internalType": "string",
              "name": "defaultThumbnail",
              "type": "string"
            },
            {
              "internalType": "string[]",
              "name": "followers",
              "type": "string[]"
            },
            {
              "internalType": "string[]",
              "name": "follows",
              "type": "string[]"
            },
            {
              "internalType": "address",
              "name": "owner",
              "type": "address"
            }
          ],
          "internalType": "struct Superstream.Profile",
          "name": "",
          "type": "tuple"
        }
      ],
      "stateMutability": "view",
      "type": "function"
    },
    {
      "inputs": [
        {
          "internalType": "uint256",
          "name": "_id",
          "type": "uint256"
        }
      ],
      "name": "getSessionData",
      "outputs": [
        {
          "components": [
            {
              "internalType": "string",
              "name": "creator",
              "type": "string"
            },
            {
              "internalType": "string",
              "name": "sessionId",
              "type": "string"
            },
            {
              "internalType": "uint256",
              "name": "id",
              "type": "uint256"
            },
            {
              "internalType": "uint256",
              "name": "views",
              "type": "uint256"
            },
            {
              "internalType": "bool",
              "name": "isSubscribersOnly",
              "type": "bool"
            }
          ],
          "internalType": "struct Superstream.Stream",
          "name": "",
          "type": "tuple"
        }
      ],
      "stateMutability": "view",
      "type": "function"
    },
    {
      "inputs": [
        {
          "internalType": "uint256",
          "name": "_id",
          "type": "uint256"
        }
      ],
      "name": "getSessionId",
      "outputs": [
        {
          "internalType": "string",
          "name": "",
          "type": "string"
        }
      ],
      "stateMutability": "view",
      "type": "function"
    },
    {
      "inputs": [
        {
          "internalType": "uint256",
          "name": "_id",
          "type": "uint256"
        }
      ],
      "name": "getSessionWithViewIncrement",
      "outputs": [
        {
          "components": [
            {
              "internalType": "string",
              "name": "creator",
              "type": "string"
            },
            {
              "internalType": "string",
              "name": "sessionId",
              "type": "string"
            },
            {
              "internalType": "uint256",
              "name": "id",
              "type": "uint256"
            },
            {
              "internalType": "uint256",
              "name": "views",
              "type": "uint256"
            },
            {
              "internalType": "bool",
              "name": "isSubscribersOnly",
              "type": "bool"
            }
          ],
          "internalType": "struct Superstream.Stream",
          "name": "",
          "type": "tuple"
        }
      ],
      "stateMutability": "nonpayable",
      "type": "function"
    },
    {
      "inputs": [],
      "name": "getStreamKey",
      "outputs": [
        {
          "internalType": "string",
          "name": "",
          "type": "string"
        }
      ],
      "stateMutability": "view",
      "type": "function"
    },
    {
      "inputs": [
        {
          "internalType": "string",
          "name": "_toUsername",
          "type": "string"
        }
      ],
      "name": "getSubscriptionInfo",
      "outputs": [
        {
          "components": [
            {
              "internalType": "uint256",
              "name": "startedAt",
              "type": "uint256"
            },
            {
              "internalType": "uint256",
              "name": "flowRate",
              "type": "uint256"
            },
            {
              "internalType": "string",
              "name": "toUsername",
              "type": "string"
            },
            {
              "internalType": "address",
              "name": "toAddress",
              "type": "address"
            },
            {
              "internalType": "address",
              "name": "fromAddress",
              "type": "address"
            }
          ],
          "internalType": "struct Superstream.Subscription",
          "name": "",
          "type": "tuple"
        }
      ],
      "stateMutability": "view",
      "type": "function"
    },
    {
      "inputs": [
        {
          "internalType": "string",
          "name": "",
          "type": "string"
        }
      ],
      "name": "isPublished",
      "outputs": [
        {
          "internalType": "bool",
          "name": "",
          "type": "bool"
        }
      ],
      "stateMutability": "view",
      "type": "function"
    },
    {
      "inputs": [
        {
          "internalType": "string",
          "name": "username",
          "type": "string"
        }
      ],
      "name": "isSubscriber",
      "outputs": [
        {
          "internalType": "bool",
          "name": "",
          "type": "bool"
        }
      ],
      "stateMutability": "view",
      "type": "function"
    },
    {
      "inputs": [
        {
          "internalType": "string",
          "name": "_title",
          "type": "string"
        },
        {
          "internalType": "string",
          "name": "_thumbnail",
          "type": "string"
        }
      ],
      "name": "setStreamInfo",
      "outputs": [],
      "stateMutability": "nonpayable",
      "type": "function"
    },
    {
      "inputs": [
        {
          "internalType": "uint256",
          "name": "_flowRate",
          "type": "uint256"
        }
      ],
      "name": "setSubscriptionCharge",
      "outputs": [],
      "stateMutability": "nonpayable",
      "type": "function"
    },
    {
      "inputs": [
        {
          "internalType": "string",
          "name": "_toUsername",
          "type": "string"
        },
        {
          "internalType": "uint256",
          "name": "_flowRate",
          "type": "uint256"
        }
      ],
      "name": "subscribe",
      "outputs": [],
      "stateMutability": "nonpayable",
      "type": "function"
    },
    {
      "inputs": [
        {
          "internalType": "address",
          "name": "receiver",
          "type": "address"
        },
        {
          "internalType": "uint256",
          "name": "_amount",
          "type": "uint256"
        }
      ],
      "name": "tip",
      "outputs": [],
      "stateMutability": "payable",
      "type": "function"
    },
    {
      "inputs": [],
      "name": "toggleSubOnlyForLiveStream",
      "outputs": [],
      "stateMutability": "nonpayable",
      "type": "function"
    },
    {
      "inputs": [
        {
          "internalType": "uint256",
          "name": "_id",
          "type": "uint256"
        }
      ],
      "name": "toggleSubOnlyForPublishedStream",
      "outputs": [],
      "stateMutability": "nonpayable",
      "type": "function"
    },
    {
      "inputs": [
        {
          "internalType": "string",
          "name": "_toUsername",
          "type": "string"
        }
      ],
      "name": "unsubscribe",
      "outputs": [],
      "stateMutability": "nonpayable",
      "type": "function"
    },
    {
      "inputs": [
        {
          "internalType": "string",
          "name": "",
          "type": "string"
        }
      ],
      "name": "usernameTaken",
      "outputs": [
        {
          "internalType": "bool",
          "name": "",
          "type": "bool"
        }
      ],
      "stateMutability": "view",
      "type": "function"
    }
  ],
  "bytecode": "0x60806040526001805534801561001457600080fd5b50336000806101000a81548173ffffffffffffffffffffffffffffffffffffffff021916908373ffffffffffffffffffffffffffffffffffffffff160217905550615097806100646000396000f3fe6080604052600436106101355760003560e01c8063808e6c4a116100ab578063b7ea4f061161006f578063b7ea4f0614610413578063c7ebd41c14610450578063e4a48b001461048d578063f26e818a146104b6578063f6d977b8146104f3578063fd71d7bf1461051c57610135565b8063808e6c4a1461033d5780638b6f3d311461037a5780638b6fc452146103a3578063ae5ff905146103bf578063b4cbb2b1146103e857610135565b806347cc5f9a116100fd57806347cc5f9a1461020b578063495dcbe3146102345780635513802c1461025d5780636a60a4eb1461029a5780636e19cb18146102c357806370c63fcc1461030057610135565b80630b9f8d411461013a57806313be115e14610151578063346582c61461017a578063390deb17146101b757806342bd3f8f146101e0575b600080fd5b34801561014657600080fd5b5061014f610559565b005b34801561015d57600080fd5b5061017860048036038101906101739190613fbe565b6106ac565b005b34801561018657600080fd5b506101a1600480360381019061019c9190614101565b610a9f565b6040516101ae9190614b54565b60405180910390f35b3480156101c357600080fd5b506101de60048036038101906101d99190613f11565b610cc1565b005b3480156101ec57600080fd5b506101f5610e9f565b6040516102029190614b32565b60405180910390f35b34801561021757600080fd5b50610232600480360381019061022d9190613f11565b6114c1565b005b34801561024057600080fd5b5061025b600480360381019061025691906140ad565b61170e565b005b34801561026957600080fd5b50610284600480360381019061027f9190613f11565b611ab8565b6040516102919190614b32565b60405180910390f35b3480156102a657600080fd5b506102c160048036038101906102bc9190613f52565b61214f565b005b3480156102cf57600080fd5b506102ea60048036038101906102e59190614101565b612376565b6040516102f791906149b0565b60405180910390f35b34801561030c57600080fd5b5061032760048036038101906103229190613ecc565b6125a1565b6040516103349190614973565b60405180910390f35b34801561034957600080fd5b50610364600480360381019061035f9190613ecc565b612837565b6040516103719190614995565b60405180910390f35b34801561038657600080fd5b506103a1600480360381019061039c9190614101565b612944565b005b6103bd60048036038101906103b89190613e90565b612ac8565b005b3480156103cb57600080fd5b506103e660048036038101906103e19190613f52565b612be5565b005b3480156103f457600080fd5b506103fd612e33565b60405161040a91906149b0565b60405180910390f35b34801561041f57600080fd5b5061043a60048036038101906104359190614101565b612f02565b6040516104479190614b54565b60405180910390f35b34801561045c57600080fd5b5061047760048036038101906104729190613f11565b61345e565b6040516104849190614995565b60405180910390f35b34801561049957600080fd5b506104b460048036038101906104af919061412a565b613494565b005b3480156104c257600080fd5b506104dd60048036038101906104d89190613f11565b61369f565b6040516104ea9190614995565b60405180910390f35b3480156104ff57600080fd5b5061051a60048036038101906105159190614101565b6136d5565b005b34801561052857600080fd5b50610543600480360381019061053e9190613f11565b613877565b6040516105509190614b76565b60405180910390f35b60006004600560003373ffffffffffffffffffffffffffffffffffffffff1673ffffffffffffffffffffffffffffffffffffffff1681526020019081526020016000206040516105a99190614917565b908152602001604051809103902090503373ffffffffffffffffffffffffffffffffffffffff1681600c0160009054906101000a900473ffffffffffffffffffffffffffffffffffffffff1673ffffffffffffffffffffffffffffffffffffffff161461064b576040517f08c379a000000000000000000000000000000000000000000000000000000000815260040161064290614a02565b60405180910390fd5b600115158160030160009054906101000a900460ff161515141561068b5760008160030160006101000a81548160ff0219169083151502179055506106a9565b60018160030160006101000a81548160ff0219169083151502179055505b50565b6006856040516106bc9190614900565b908152602001604051809103902060009054906101000a900460ff1615610718576040517f08c379a000000000000000000000000000000000000000000000000000000000815260040161070f90614ac2565b60405180910390fd5b610720613b2c565b858160800181905250828160e00181905250848160a00181905250838160c00181905250604051806020016040528060008152508161012001819052506040518060400160405280601481526020017f44656661756c742053747265616d205469746c650000000000000000000000008152508161010001819052503381610180019073ffffffffffffffffffffffffffffffffffffffff16908173ffffffffffffffffffffffffffffffffffffffff168152505060016006876040516107e79190614900565b908152602001604051809103902060006101000a81548160ff0219169083151502179055508060048760405161081d9190614900565b908152602001604051809103902060008201518160000155602082015181600101556040820151816002015560608201518160030160006101000a81548160ff0219169083151502179055506080820151816004019080519060200190610885929190613bac565b5060a08201518160050190805190602001906108a2929190613bac565b5060c08201518160060190805190602001906108bf929190613bac565b5060e08201518160070190805190602001906108dc929190613bac565b506101008201518160080190805190602001906108fa929190613bac565b50610120820151816009019080519060200190610918929190613bac565b5061014082015181600a019080519060200190610936929190613c32565b5061016082015181600b019080519060200190610954929190613c32565b5061018082015181600c0160006101000a81548173ffffffffffffffffffffffffffffffffffffffff021916908373ffffffffffffffffffffffffffffffffffffffff16021790555090505085600560003373ffffffffffffffffffffffffffffffffffffffff1673ffffffffffffffffffffffffffffffffffffffff16815260200190815260200160002090805190602001906109f3929190613bac565b5081600360003373ffffffffffffffffffffffffffffffffffffffff1673ffffffffffffffffffffffffffffffffffffffff1681526020019081526020016000209080519060200190610a47929190613bac565b507fe478d3237a74c8837099383b4a89ced58ff94ec3d22eb2218bf14960b1c2354e81604051610a779190614b32565b60405180910390a160016000815480929190610a9290614dea565b9190505550505050505050565b610aa7613c92565b604051602001610ab690614943565b6040516020818303038152906040528051906020012060026000848152602001908152602001600020600101604051602001610af29190614917565b604051602081830303815290604052805190602001201415610b49576040517f08c379a0000000000000000000000000000000000000000000000000000000008152600401610b4090614a82565b60405180910390fd5b600260008381526020019081526020016000206040518060a0016040529081600082018054610b7790614d87565b80601f0160208091040260200160405190810160405280929190818152602001828054610ba390614d87565b8015610bf05780601f10610bc557610100808354040283529160200191610bf0565b820191906000526020600020905b815481529060010190602001808311610bd357829003601f168201915b50505050508152602001600182018054610c0990614d87565b80601f0160208091040260200160405190810160405280929190818152602001828054610c3590614d87565b8015610c825780601f10610c5757610100808354040283529160200191610c82565b820191906000526020600020905b815481529060010190602001808311610c6557829003601f168201915b5050505050815260200160028201548152602001600382015481526020016004820160009054906101000a900460ff1615151515815250509050919050565b6000600560003373ffffffffffffffffffffffffffffffffffffffff1673ffffffffffffffffffffffffffffffffffffffff1681526020019081526020016000208054610d0d90614d87565b80601f0160208091040260200160405190810160405280929190818152602001828054610d3990614d87565b8015610d865780601f10610d5b57610100808354040283529160200191610d86565b820191906000526020600020905b815481529060010190602001808311610d6957829003601f168201915b50505050509050600481604051610d9d9190614900565b9081526020016040518091039020600b0182908060018154018082558091505060019003906000526020600020016000909190919091509080519060200190610de7929190613bac565b50600482604051610df89190614900565b9081526020016040518091039020600a0181908060018154018082558091505060019003906000526020600020016000909190919091509080519060200190610e42929190613bac565b5081604051610e519190614900565b604051809103902081604051610e679190614900565b60405180910390207f60e966648a72c66e565c502cdeab4c996d5ba02bdffc84f2f4539eb413c5cb2860405160405180910390a35050565b610ea7613b2c565b6004600560003373ffffffffffffffffffffffffffffffffffffffff1673ffffffffffffffffffffffffffffffffffffffff168152602001908152602001600020604051610ef59190614917565b9081526020016040518091039020604051806101a00160405290816000820154815260200160018201548152602001600282015481526020016003820160009054906101000a900460ff16151515158152602001600482018054610f5890614d87565b80601f0160208091040260200160405190810160405280929190818152602001828054610f8490614d87565b8015610fd15780601f10610fa657610100808354040283529160200191610fd1565b820191906000526020600020905b815481529060010190602001808311610fb457829003601f168201915b50505050508152602001600582018054610fea90614d87565b80601f016020809104026020016040519081016040528092919081815260200182805461101690614d87565b80156110635780601f1061103857610100808354040283529160200191611063565b820191906000526020600020905b81548152906001019060200180831161104657829003601f168201915b5050505050815260200160068201805461107c90614d87565b80601f01602080910402602001604051908101604052809291908181526020018280546110a890614d87565b80156110f55780601f106110ca576101008083540402835291602001916110f5565b820191906000526020600020905b8154815290600101906020018083116110d857829003601f168201915b5050505050815260200160078201805461110e90614d87565b80601f016020809104026020016040519081016040528092919081815260200182805461113a90614d87565b80156111875780601f1061115c57610100808354040283529160200191611187565b820191906000526020600020905b81548152906001019060200180831161116a57829003601f168201915b505050505081526020016008820180546111a090614d87565b80601f01602080910402602001604051908101604052809291908181526020018280546111cc90614d87565b80156112195780601f106111ee57610100808354040283529160200191611219565b820191906000526020600020905b8154815290600101906020018083116111fc57829003601f168201915b5050505050815260200160098201805461123290614d87565b80601f016020809104026020016040519081016040528092919081815260200182805461125e90614d87565b80156112ab5780601f10611280576101008083540402835291602001916112ab565b820191906000526020600020905b81548152906001019060200180831161128e57829003601f168201915b50505050508152602001600a8201805480602002602001604051908101604052809291908181526020016000905b828210156113855783829060005260206000200180546112f890614d87565b80601f016020809104026020016040519081016040528092919081815260200182805461132490614d87565b80156113715780601f1061134657610100808354040283529160200191611371565b820191906000526020600020905b81548152906001019060200180831161135457829003601f168201915b5050505050815260200190600101906112d9565b505050508152602001600b8201805480602002602001604051908101604052809291908181526020016000905b8282101561145e5783829060005260206000200180546113d190614d87565b80601f01602080910402602001604051908101604052809291908181526020018280546113fd90614d87565b801561144a5780601f1061141f5761010080835404028352916020019161144a565b820191906000526020600020905b81548152906001019060200180831161142d57829003601f168201915b5050505050815260200190600101906113b2565b505050508152602001600c820160009054906101000a900473ffffffffffffffffffffffffffffffffffffffff1673ffffffffffffffffffffffffffffffffffffffff1673ffffffffffffffffffffffffffffffffffffffff1681525050905090565b600073ffffffffffffffffffffffffffffffffffffffff16600960003373ffffffffffffffffffffffffffffffffffffffff1673ffffffffffffffffffffffffffffffffffffffff168152602001908152602001600020826040516115269190614900565b908152602001604051809103902060030160009054906101000a900473ffffffffffffffffffffffffffffffffffffffff1673ffffffffffffffffffffffffffffffffffffffff1614156115af576040517f08c379a00000000000000000000000000000000000000000000000000000000081526004016115a690614a22565b60405180910390fd5b6004816040516115bf9190614900565b908152602001604051809103902060020160008154809291906115e190614d5d565b9190505550600960003373ffffffffffffffffffffffffffffffffffffffff1673ffffffffffffffffffffffffffffffffffffffff168152602001908152602001600020816040516116339190614900565b908152602001604051809103902060008082016000905560018201600090556002820160006116629190613cc3565b6003820160006101000a81549073ffffffffffffffffffffffffffffffffffffffff02191690556004820160006101000a81549073ffffffffffffffffffffffffffffffffffffffff02191690555050806040516116c09190614900565b60405180910390203373ffffffffffffffffffffffffffffffffffffffff167fb808084c2f3fe56de9cba89da339ed7c671da54a42c645035e217cd4835e672f60405160405180910390a350565b600073ffffffffffffffffffffffffffffffffffffffff16600960003373ffffffffffffffffffffffffffffffffffffffff1673ffffffffffffffffffffffffffffffffffffffff168152602001908152602001600020836040516117739190614900565b908152602001604051809103902060030160009054906101000a900473ffffffffffffffffffffffffffffffffffffffff1673ffffffffffffffffffffffffffffffffffffffff16146117fb576040517f08c379a00000000000000000000000000000000000000000000000000000000081526004016117f290614a42565b60405180910390fd5b8060048360405161180c9190614900565b908152602001604051809103902060010154111561185f576040517f08c379a000000000000000000000000000000000000000000000000000000000815260040161185690614aa2565b60405180910390fd5b60006004836040516118719190614900565b9081526020016040518091039020600c0160009054906101000a900473ffffffffffffffffffffffffffffffffffffffff1690506040518060a001604052804281526020018381526020018481526020018273ffffffffffffffffffffffffffffffffffffffff1681526020013373ffffffffffffffffffffffffffffffffffffffff16815250600960003373ffffffffffffffffffffffffffffffffffffffff1673ffffffffffffffffffffffffffffffffffffffff168152602001908152602001600020846040516119459190614900565b908152602001604051809103902060008201518160000155602082015181600101556040820151816002019080519060200190611983929190613bac565b5060608201518160030160006101000a81548173ffffffffffffffffffffffffffffffffffffffff021916908373ffffffffffffffffffffffffffffffffffffffff16021790555060808201518160040160006101000a81548173ffffffffffffffffffffffffffffffffffffffff021916908373ffffffffffffffffffffffffffffffffffffffff160217905550905050600483604051611a259190614900565b90815260200160405180910390206002016000815480929190611a4790614dea565b91905055508073ffffffffffffffffffffffffffffffffffffffff163373ffffffffffffffffffffffffffffffffffffffff167f7cb477f5734710a7ff2380668eab7dd174fe3063832843ec235b87b940c3f6788585604051611aab9291906149d2565b60405180910390a3505050565b611ac0613b2c565b600073ffffffffffffffffffffffffffffffffffffffff16600483604051611ae89190614900565b9081526020016040518091039020600c0160009054906101000a900473ffffffffffffffffffffffffffffffffffffffff1673ffffffffffffffffffffffffffffffffffffffff161415611b71576040517f08c379a0000000000000000000000000000000000000000000000000000000008152600401611b6890614ae2565b60405180910390fd5b600482604051611b819190614900565b9081526020016040518091039020604051806101a00160405290816000820154815260200160018201548152602001600282015481526020016003820160009054906101000a900460ff16151515158152602001600482018054611be490614d87565b80601f0160208091040260200160405190810160405280929190818152602001828054611c1090614d87565b8015611c5d5780601f10611c3257610100808354040283529160200191611c5d565b820191906000526020600020905b815481529060010190602001808311611c4057829003601f168201915b50505050508152602001600582018054611c7690614d87565b80601f0160208091040260200160405190810160405280929190818152602001828054611ca290614d87565b8015611cef5780601f10611cc457610100808354040283529160200191611cef565b820191906000526020600020905b815481529060010190602001808311611cd257829003601f168201915b50505050508152602001600682018054611d0890614d87565b80601f0160208091040260200160405190810160405280929190818152602001828054611d3490614d87565b8015611d815780601f10611d5657610100808354040283529160200191611d81565b820191906000526020600020905b815481529060010190602001808311611d6457829003601f168201915b50505050508152602001600782018054611d9a90614d87565b80601f0160208091040260200160405190810160405280929190818152602001828054611dc690614d87565b8015611e135780601f10611de857610100808354040283529160200191611e13565b820191906000526020600020905b815481529060010190602001808311611df657829003601f168201915b50505050508152602001600882018054611e2c90614d87565b80601f0160208091040260200160405190810160405280929190818152602001828054611e5890614d87565b8015611ea55780601f10611e7a57610100808354040283529160200191611ea5565b820191906000526020600020905b815481529060010190602001808311611e8857829003601f168201915b50505050508152602001600982018054611ebe90614d87565b80601f0160208091040260200160405190810160405280929190818152602001828054611eea90614d87565b8015611f375780601f10611f0c57610100808354040283529160200191611f37565b820191906000526020600020905b815481529060010190602001808311611f1a57829003601f168201915b50505050508152602001600a8201805480602002602001604051908101604052809291908181526020016000905b82821015612011578382906000526020600020018054611f8490614d87565b80601f0160208091040260200160405190810160405280929190818152602001828054611fb090614d87565b8015611ffd5780601f10611fd257610100808354040283529160200191611ffd565b820191906000526020600020905b815481529060010190602001808311611fe057829003601f168201915b505050505081526020019060010190611f65565b505050508152602001600b8201805480602002602001604051908101604052809291908181526020016000905b828210156120ea57838290600052602060002001805461205d90614d87565b80601f016020809104026020016040519081016040528092919081815260200182805461208990614d87565b80156120d65780601f106120ab576101008083540402835291602001916120d6565b820191906000526020600020905b8154815290600101906020018083116120b957829003601f168201915b50505050508152602001906001019061203e565b505050508152602001600c820160009054906101000a900473ffffffffffffffffffffffffffffffffffffffff1673ffffffffffffffffffffffffffffffffffffffff1673ffffffffffffffffffffffffffffffffffffffff16815250509050919050565b3373ffffffffffffffffffffffffffffffffffffffff166004600560003373ffffffffffffffffffffffffffffffffffffffff1673ffffffffffffffffffffffffffffffffffffffff1681526020019081526020016000206040516121b49190614917565b9081526020016040518091039020600c0160009054906101000a900473ffffffffffffffffffffffffffffffffffffffff1673ffffffffffffffffffffffffffffffffffffffff161461223c576040517f08c379a000000000000000000000000000000000000000000000000000000000815260040161223390614a02565b60405180910390fd5b806004600560003373ffffffffffffffffffffffffffffffffffffffff1673ffffffffffffffffffffffffffffffffffffffff16815260200190815260200160002060405161228b9190614917565b908152602001604051809103902060090190805190602001906122af929190613bac565b50816004600560003373ffffffffffffffffffffffffffffffffffffffff1673ffffffffffffffffffffffffffffffffffffffff1681526020019081526020016000206040516122ff9190614917565b90815260200160405180910390206008019080519060200190612323929190613bac565b503373ffffffffffffffffffffffffffffffffffffffff167fae0b535f62709971f899532b63899795ae0b54718816b97fde69f9ea013139838360405161236a91906149b0565b60405180910390a25050565b60606002600083815260200190815260200160002060000160405160200161239e9190614917565b60405160208183030381529060405280519060200120600560003373ffffffffffffffffffffffffffffffffffffffff1673ffffffffffffffffffffffffffffffffffffffff1681526020019081526020016000206040516020016124039190614917565b6040516020818303038152906040528051906020012014612459576040517f08c379a000000000000000000000000000000000000000000000000000000000815260040161245090614a02565b60405180910390fd5b60405160200161246890614943565b60405160208183030381529060405280519060200120600260008481526020019081526020016000206001016040516020016124a49190614917565b6040516020818303038152906040528051906020012014156124fb576040517f08c379a00000000000000000000000000000000000000000000000000000000081526004016124f290614a82565b60405180910390fd5b60026000838152602001908152602001600020600101805461251c90614d87565b80601f016020809104026020016040519081016040528092919081815260200182805461254890614d87565b80156125955780601f1061256a57610100808354040283529160200191612595565b820191906000526020600020905b81548152906001019060200180831161257857829003601f168201915b50505050509050919050565b6060600883836040516125b59291906148e7565b9081526020016040518091039020805480602002602001604051908101604052809291908181526020016000905b8282101561282b57838290600052602060002090600502016040518060a00160405290816000820154815260200160018201805461262090614d87565b80601f016020809104026020016040519081016040528092919081815260200182805461264c90614d87565b80156126995780601f1061266e57610100808354040283529160200191612699565b820191906000526020600020905b81548152906001019060200180831161267c57829003601f168201915b505050505081526020016002820180546126b290614d87565b80601f01602080910402602001604051908101604052809291908181526020018280546126de90614d87565b801561272b5780601f106127005761010080835404028352916020019161272b565b820191906000526020600020905b81548152906001019060200180831161270e57829003601f168201915b5050505050815260200160038201805461274490614d87565b80601f016020809104026020016040519081016040528092919081815260200182805461277090614d87565b80156127bd5780601f10612792576101008083540402835291602001916127bd565b820191906000526020600020905b8154815290600101906020018083116127a057829003601f168201915b505050505081526020016004820160009054906101000a900473ffffffffffffffffffffffffffffffffffffffff1673ffffffffffffffffffffffffffffffffffffffff1673ffffffffffffffffffffffffffffffffffffffff1681525050815260200190600101906125e3565b50505050905092915050565b60006004838360405161284b9291906148e7565b9081526020016040518091039020600c0160009054906101000a900473ffffffffffffffffffffffffffffffffffffffff1673ffffffffffffffffffffffffffffffffffffffff16600960003373ffffffffffffffffffffffffffffffffffffffff1673ffffffffffffffffffffffffffffffffffffffff16815260200190815260200160002084846040516128e29291906148e7565b908152602001604051809103902060030160009054906101000a900473ffffffffffffffffffffffffffffffffffffffff1673ffffffffffffffffffffffffffffffffffffffff161415612939576001905061293e565b600090505b92915050565b6004600560003373ffffffffffffffffffffffffffffffffffffffff1673ffffffffffffffffffffffffffffffffffffffff1681526020019081526020016000206040516129929190614917565b9081526020016040518091039020600c0160009054906101000a900473ffffffffffffffffffffffffffffffffffffffff1673ffffffffffffffffffffffffffffffffffffffff163373ffffffffffffffffffffffffffffffffffffffff1614612a31576040517f08c379a0000000000000000000000000000000000000000000000000000000008152600401612a2890614a02565b60405180910390fd5b600115156002600083815260200190815260200160002060040160009054906101000a900460ff1615151415612a955760006002600083815260200190815260200160002060040160006101000a81548160ff021916908315150217905550612ac5565b60016002600083815260200190815260200160002060040160006101000a81548160ff0219169083151502179055505b50565b60008273ffffffffffffffffffffffffffffffffffffffff1682604051612aee9061492e565b60006040518083038185875af1925050503d8060008114612b2b576040519150601f19603f3d011682016040523d82523d6000602084013e612b30565b606091505b505090506001151581151514612b7b576040517f08c379a0000000000000000000000000000000000000000000000000000000008152600401612b7290614a62565b60405180910390fd5b8273ffffffffffffffffffffffffffffffffffffffff163373ffffffffffffffffffffffffffffffffffffffff167f91d9aec1bf873fb589194ec67c304522c89e9e1de41ed647cf135fb41226befc84604051612bd89190614b98565b60405180910390a3505050565b60006040518060a00160405280428152602001848152602001838152602001600560003373ffffffffffffffffffffffffffffffffffffffff1673ffffffffffffffffffffffffffffffffffffffff1681526020019081526020016000208054612c4e90614d87565b80601f0160208091040260200160405190810160405280929190818152602001828054612c7a90614d87565b8015612cc75780601f10612c9c57610100808354040283529160200191612cc7565b820191906000526020600020905b815481529060010190602001808311612caa57829003601f168201915b505050505081526020013373ffffffffffffffffffffffffffffffffffffffff168152509050600883604051612cfd9190614900565b9081526020016040518091039020819080600181540180825580915050600190039060005260206000209060050201600090919091909150600082015181600001556020820151816001019080519060200190612d5b929190613bac565b506040820151816002019080519060200190612d78929190613bac565b506060820151816003019080519060200190612d95929190613bac565b5060808201518160040160006101000a81548173ffffffffffffffffffffffffffffffffffffffff021916908373ffffffffffffffffffffffffffffffffffffffff160217905550505082604051612ded9190614900565b60405180910390207ffd6e27b7a188c709e276f188b30ff794c7ede9519fea7dff85d7df0566e9d3f48242604051612e26929190614b02565b60405180910390a2505050565b6060600360003373ffffffffffffffffffffffffffffffffffffffff1673ffffffffffffffffffffffffffffffffffffffff1681526020019081526020016000208054612e7f90614d87565b80601f0160208091040260200160405190810160405280929190818152602001828054612eab90614d87565b8015612ef85780601f10612ecd57610100808354040283529160200191612ef8565b820191906000526020600020905b815481529060010190602001808311612edb57829003601f168201915b5050505050905090565b612f0a613c92565b604051602001612f1990614943565b6040516020818303038152906040528051906020012060026000848152602001908152602001600020600101604051602001612f559190614917565b604051602081830303815290604052805190602001201415612fac576040517f08c379a0000000000000000000000000000000000000000000000000000000008152600401612fa390614a82565b60405180910390fd5b600115156002600084815260200190815260200160002060040160009054906101000a900460ff1615151415613281573373ffffffffffffffffffffffffffffffffffffffff16600960003373ffffffffffffffffffffffffffffffffffffffff1673ffffffffffffffffffffffffffffffffffffffff168152602001908152602001600020600260008581526020019081526020016000206000016040516130559190614917565b908152602001604051809103902060040160009054906101000a900473ffffffffffffffffffffffffffffffffffffffff1673ffffffffffffffffffffffffffffffffffffffff16146130dd576040517f08c379a00000000000000000000000000000000000000000000000000000000081526004016130d490614a02565b60405180910390fd5b60026000838152602001908152602001600020600301600081548092919061310490614dea565b9190505550600260008381526020019081526020016000206040518060a001604052908160008201805461313790614d87565b80601f016020809104026020016040519081016040528092919081815260200182805461316390614d87565b80156131b05780601f10613185576101008083540402835291602001916131b0565b820191906000526020600020905b81548152906001019060200180831161319357829003601f168201915b505050505081526020016001820180546131c990614d87565b80601f01602080910402602001604051908101604052809291908181526020018280546131f590614d87565b80156132425780601f1061321757610100808354040283529160200191613242565b820191906000526020600020905b81548152906001019060200180831161322557829003601f168201915b5050505050815260200160028201548152602001600382015481526020016004820160009054906101000a900460ff1615151515815250509050613459565b6002600083815260200190815260200160002060030160008154809291906132a890614dea565b9190505550817f8639813873f8c50d789afca6a540fc5c6cda69fba5a265dcd7a092787684ff50336040516132dd9190614958565b60405180910390a2600260008381526020019081526020016000206040518060a001604052908160008201805461331390614d87565b80601f016020809104026020016040519081016040528092919081815260200182805461333f90614d87565b801561338c5780601f106133615761010080835404028352916020019161338c565b820191906000526020600020905b81548152906001019060200180831161336f57829003601f168201915b505050505081526020016001820180546133a590614d87565b80601f01602080910402602001604051908101604052809291908181526020018280546133d190614d87565b801561341e5780601f106133f35761010080835404028352916020019161341e565b820191906000526020600020905b81548152906001019060200180831161340157829003601f168201915b5050505050815260200160028201548152602001600382015481526020016004820160009054906101000a900460ff16151515158152505090505b919050565b6007818051602081018201805184825260208301602085012081835280955050505050506000915054906101000a900460ff1681565b61349c613c92565b82816020018190525083816040018181525050600560003373ffffffffffffffffffffffffffffffffffffffff1673ffffffffffffffffffffffffffffffffffffffff16815260200190815260200160002080546134f990614d87565b80601f016020809104026020016040519081016040528092919081815260200182805461352590614d87565b80156135725780601f1061354757610100808354040283529160200191613572565b820191906000526020600020905b81548152906001019060200180831161355557829003601f168201915b5050505050816000018190525081816080019015159081151581525050806002600086815260200190815260200160002060008201518160000190805190602001906135bf929190613bac565b5060208201518160010190805190602001906135dc929190613bac565b50604082015181600201556060820151816003015560808201518160040160006101000a81548160ff02191690831515021790555090505060016007846040516136269190614900565b908152602001604051809103902060006101000a81548160ff0219169083151502179055503373ffffffffffffffffffffffffffffffffffffffff167f36c6b813382449e17bb3195e869666ed514b79cc57d72d04ba60570c935fc7fd856040516136919190614b98565b60405180910390a250505050565b6006818051602081018201805184825260208301602085012081835280955050505050506000915054906101000a900460ff1681565b3373ffffffffffffffffffffffffffffffffffffffff166004600560003373ffffffffffffffffffffffffffffffffffffffff1673ffffffffffffffffffffffffffffffffffffffff16815260200190815260200160002060405161373a9190614917565b9081526020016040518091039020600c0160009054906101000a900473ffffffffffffffffffffffffffffffffffffffff1673ffffffffffffffffffffffffffffffffffffffff16146137c2576040517f08c379a00000000000000000000000000000000000000000000000000000000081526004016137b990614a02565b60405180910390fd5b806004600560003373ffffffffffffffffffffffffffffffffffffffff1673ffffffffffffffffffffffffffffffffffffffff1681526020019081526020016000206040516138119190614917565b9081526020016040518091039020600101819055503373ffffffffffffffffffffffffffffffffffffffff167f39ea950d3af580af928afccb0ec59d78c4526c5097a50e30abacc61fef8d16f18260405161386c9190614b98565b60405180910390a250565b61387f613d03565b600073ffffffffffffffffffffffffffffffffffffffff16600960003373ffffffffffffffffffffffffffffffffffffffff1673ffffffffffffffffffffffffffffffffffffffff168152602001908152602001600020836040516138e49190614900565b908152602001604051809103902060030160009054906101000a900473ffffffffffffffffffffffffffffffffffffffff1673ffffffffffffffffffffffffffffffffffffffff16141561396d576040517f08c379a000000000000000000000000000000000000000000000000000000000815260040161396490614a22565b60405180910390fd5b600960003373ffffffffffffffffffffffffffffffffffffffff1673ffffffffffffffffffffffffffffffffffffffff168152602001908152602001600020826040516139ba9190614900565b90815260200160405180910390206040518060a001604052908160008201548152602001600182015481526020016002820180546139f790614d87565b80601f0160208091040260200160405190810160405280929190818152602001828054613a2390614d87565b8015613a705780601f10613a4557610100808354040283529160200191613a70565b820191906000526020600020905b815481529060010190602001808311613a5357829003601f168201915b505050505081526020016003820160009054906101000a900473ffffffffffffffffffffffffffffffffffffffff1673ffffffffffffffffffffffffffffffffffffffff1673ffffffffffffffffffffffffffffffffffffffff1681526020016004820160009054906101000a900473ffffffffffffffffffffffffffffffffffffffff1673ffffffffffffffffffffffffffffffffffffffff1673ffffffffffffffffffffffffffffffffffffffff16815250509050919050565b604051806101a001604052806000815260200160008152602001600081526020016000151581526020016060815260200160608152602001606081526020016060815260200160608152602001606081526020016060815260200160608152602001600073ffffffffffffffffffffffffffffffffffffffff1681525090565b828054613bb890614d87565b90600052602060002090601f016020900481019282613bda5760008555613c21565b82601f10613bf357805160ff1916838001178555613c21565b82800160010185558215613c21579182015b82811115613c20578251825591602001919060010190613c05565b5b509050613c2e9190613d5e565b5090565b828054828255906000526020600020908101928215613c81579160200282015b82811115613c80578251829080519060200190613c70929190613bac565b5091602001919060010190613c52565b5b509050613c8e9190613d7b565b5090565b6040518060a00160405280606081526020016060815260200160008152602001600081526020016000151581525090565b508054613ccf90614d87565b6000825580601f10613ce15750613d00565b601f016020900490600052602060002090810190613cff9190613d5e565b5b50565b6040518060a00160405280600081526020016000815260200160608152602001600073ffffffffffffffffffffffffffffffffffffffff168152602001600073ffffffffffffffffffffffffffffffffffffffff1681525090565b5b80821115613d77576000816000905550600101613d5f565b5090565b5b80821115613d9b5760008181613d929190613cc3565b50600101613d7c565b5090565b6000613db2613dad84614bd8565b614bb3565b905082815260208101848484011115613dca57600080fd5b613dd5848285614d1b565b509392505050565b600081359050613dec8161501c565b92915050565b600081359050613e0181615033565b92915050565b60008083601f840112613e1957600080fd5b8235905067ffffffffffffffff811115613e3257600080fd5b602083019150836001820283011115613e4a57600080fd5b9250929050565b600082601f830112613e6257600080fd5b8135613e72848260208601613d9f565b91505092915050565b600081359050613e8a8161504a565b92915050565b60008060408385031215613ea357600080fd5b6000613eb185828601613ddd565b9250506020613ec285828601613e7b565b9150509250929050565b60008060208385031215613edf57600080fd5b600083013567ffffffffffffffff811115613ef957600080fd5b613f0585828601613e07565b92509250509250929050565b600060208284031215613f2357600080fd5b600082013567ffffffffffffffff811115613f3d57600080fd5b613f4984828501613e51565b91505092915050565b60008060408385031215613f6557600080fd5b600083013567ffffffffffffffff811115613f7f57600080fd5b613f8b85828601613e51565b925050602083013567ffffffffffffffff811115613fa857600080fd5b613fb485828601613e51565b9150509250929050565b600080600080600060a08688031215613fd657600080fd5b600086013567ffffffffffffffff811115613ff057600080fd5b613ffc88828901613e51565b955050602086013567ffffffffffffffff81111561401957600080fd5b61402588828901613e51565b945050604086013567ffffffffffffffff81111561404257600080fd5b61404e88828901613e51565b935050606086013567ffffffffffffffff81111561406b57600080fd5b61407788828901613e51565b925050608086013567ffffffffffffffff81111561409457600080fd5b6140a088828901613e51565b9150509295509295909350565b600080604083850312156140c057600080fd5b600083013567ffffffffffffffff8111156140da57600080fd5b6140e685828601613e51565b92505060206140f785828601613e7b565b9150509250929050565b60006020828403121561411357600080fd5b600061412184828501613e7b565b91505092915050565b60008060006060848603121561413f57600080fd5b600061414d86828701613e7b565b935050602084013567ffffffffffffffff81111561416a57600080fd5b61417686828701613e51565b925050604061418786828701613df2565b9150509250925092565b600061419d8383614304565b905092915050565b60006141b18383614584565b905092915050565b6141c281614cd3565b82525050565b6141d181614cd3565b82525050565b60006141e282614c3e565b6141ec8185614c79565b9350836020820285016141fe85614c09565b8060005b8581101561423a578484038952815161421b8582614191565b945061422683614c5f565b925060208a01995050600181019050614202565b50829750879550505050505092915050565b600061425782614c49565b6142618185614c8a565b93508360208202850161427385614c19565b8060005b858110156142af578484038952815161429085826141a5565b945061429b83614c6c565b925060208a01995050600181019050614277565b50829750879550505050505092915050565b6142ca81614ce5565b82525050565b6142d981614ce5565b82525050565b60006142eb8385614cc8565b93506142f8838584614d1b565b82840190509392505050565b600061430f82614c54565b6143198185614ca6565b9350614329818560208601614d2a565b61433281614ec0565b840191505092915050565b600061434882614c54565b6143528185614cb7565b9350614362818560208601614d2a565b61436b81614ec0565b840191505092915050565b600061438182614c54565b61438b8185614cc8565b935061439b818560208601614d2a565b80840191505092915050565b600081546143b481614d87565b6143be8186614cc8565b945060018216600081146143d957600181146143ea5761441d565b60ff1983168652818601935061441d565b6143f385614c29565b60005b83811015614415578154818901526001820191506020810190506143f6565b838801955050505b50505092915050565b6000614433600c83614cb7565b915061443e82614ed1565b602082019050919050565b6000614456601b83614cb7565b915061446182614efa565b602082019050919050565b6000614479601a83614cb7565b915061448482614f23565b602082019050919050565b600061449c601283614cb7565b91506144a782614f4c565b602082019050919050565b60006144bf600083614c9b565b91506144ca82614f75565b600082019050919050565b60006144e2600083614cc8565b91506144ed82614f75565b600082019050919050565b6000614505601583614cb7565b915061451082614f78565b602082019050919050565b6000614528601683614cb7565b915061453382614fa1565b602082019050919050565b600061454b601a83614cb7565b915061455682614fca565b602082019050919050565b600061456e601683614cb7565b915061457982614ff3565b602082019050919050565b600060a08301600083015161459c60008601826148c9565b50602083015184820360208601526145b48282614304565b915050604083015184820360408601526145ce8282614304565b915050606083015184820360608601526145e88282614304565b91505060808301516145fd60808601826141b9565b508091505092915050565b600060a08301600083015161462060008601826148c9565b50602083015184820360208601526146388282614304565b915050604083015184820360408601526146528282614304565b9150506060830151848203606086015261466c8282614304565b915050608083015161468160808601826141b9565b508091505092915050565b60006101a0830160008301516146a560008601826148c9565b5060208301516146b860208601826148c9565b5060408301516146cb60408601826148c9565b5060608301516146de60608601826142c1565b50608083015184820360808601526146f68282614304565b91505060a083015184820360a08601526147108282614304565b91505060c083015184820360c086015261472a8282614304565b91505060e083015184820360e08601526147448282614304565b9150506101008301518482036101008601526147608282614304565b91505061012083015184820361012086015261477c8282614304565b91505061014083015184820361014086015261479882826141d7565b9150506101608301518482036101608601526147b482826141d7565b9150506101808301516147cb6101808601826141b9565b508091505092915050565b600060a08301600083015184820360008601526147f38282614304565b9150506020830151848203602086015261480d8282614304565b915050604083015161482260408601826148c9565b50606083015161483560608601826148c9565b50608083015161484860808601826142c1565b508091505092915050565b600060a08301600083015161486b60008601826148c9565b50602083015161487e60208601826148c9565b50604083015184820360408601526148968282614304565b91505060608301516148ab60608601826141b9565b5060808301516148be60808601826141b9565b508091505092915050565b6148d281614d11565b82525050565b6148e181614d11565b82525050565b60006148f48284866142df565b91508190509392505050565b600061490c8284614376565b915081905092915050565b600061492382846143a7565b915081905092915050565b6000614939826144b2565b9150819050919050565b600061494e826144d5565b9150819050919050565b600060208201905061496d60008301846141c8565b92915050565b6000602082019050818103600083015261498d818461424c565b905092915050565b60006020820190506149aa60008301846142d0565b92915050565b600060208201905081810360008301526149ca818461433d565b905092915050565b600060408201905081810360008301526149ec818561433d565b90506149fb60208301846148d8565b9392505050565b60006020820190508181036000830152614a1b81614426565b9050919050565b60006020820190508181036000830152614a3b81614449565b9050919050565b60006020820190508181036000830152614a5b8161446c565b9050919050565b60006020820190508181036000830152614a7b8161448f565b9050919050565b60006020820190508181036000830152614a9b816144f8565b9050919050565b60006020820190508181036000830152614abb8161451b565b9050919050565b60006020820190508181036000830152614adb8161453e565b9050919050565b60006020820190508181036000830152614afb81614561565b9050919050565b60006040820190508181036000830152614b1c8185614608565b9050614b2b60208301846148d8565b9392505050565b60006020820190508181036000830152614b4c818461468c565b905092915050565b60006020820190508181036000830152614b6e81846147d6565b905092915050565b60006020820190508181036000830152614b908184614853565b905092915050565b6000602082019050614bad60008301846148d8565b92915050565b6000614bbd614bce565b9050614bc98282614db9565b919050565b6000604051905090565b600067ffffffffffffffff821115614bf357614bf2614e91565b5b614bfc82614ec0565b9050602081019050919050565b6000819050602082019050919050565b6000819050602082019050919050565b60008190508160005260206000209050919050565b600081519050919050565b600081519050919050565b600081519050919050565b6000602082019050919050565b6000602082019050919050565b600082825260208201905092915050565b600082825260208201905092915050565b600081905092915050565b600082825260208201905092915050565b600082825260208201905092915050565b600081905092915050565b6000614cde82614cf1565b9050919050565b60008115159050919050565b600073ffffffffffffffffffffffffffffffffffffffff82169050919050565b6000819050919050565b82818337600083830152505050565b60005b83811015614d48578082015181840152602081019050614d2d565b83811115614d57576000848401525b50505050565b6000614d6882614d11565b91506000821415614d7c57614d7b614e33565b5b600182039050919050565b60006002820490506001821680614d9f57607f821691505b60208210811415614db357614db2614e62565b5b50919050565b614dc282614ec0565b810181811067ffffffffffffffff82111715614de157614de0614e91565b5b80604052505050565b6000614df582614d11565b91507fffffffffffffffffffffffffffffffffffffffffffffffffffffffffffffffff821415614e2857614e27614e33565b5b600182019050919050565b7f4e487b7100000000000000000000000000000000000000000000000000000000600052601160045260246000fd5b7f4e487b7100000000000000000000000000000000000000000000000000000000600052602260045260246000fd5b7f4e487b7100000000000000000000000000000000000000000000000000000000600052604160045260246000fd5b6000601f19601f8301169050919050565b7f556e617574686f72697a65640000000000000000000000000000000000000000600082015250565b7f537562736372697074696f6e20646f6573206e6f742065786973740000000000600082015250565b7f537562736372697074696f6e20616c7265616479206578697374000000000000600082015250565b7f4661696c656420746f2073656e64205469700000000000000000000000000000600082015250565b50565b7f53747265616d20446f6573204e6f742045786973740000000000000000000000600082015250565b7f496e73756666696369656e7420666c6f77207261746500000000000000000000600082015250565b7f557365726e616d6520697320416c72656164792054616b656e21000000000000600082015250565b7f50726f66696c6520646f6573206e6f7420657869737400000000000000000000600082015250565b61502581614cd3565b811461503057600080fd5b50565b61503c81614ce5565b811461504757600080fd5b50565b61505381614d11565b811461505e57600080fd5b5056fea2646970667358221220f9a6b2bd768e760e0e7e0168fc99ce847b5e5ca8c9a7aaf033e9b181375b9a5564736f6c63430008040033",
  "linkReferences": {},
  "deployedLinkReferences": {}
}